{
  "contractName": "VotingContract",
  "abi": [
    {
      "inputs": [],
      "stateMutability": "nonpayable",
      "type": "constructor"
    },
    {
      "inputs": [],
      "name": "owner",
      "outputs": [
        {
          "internalType": "address",
          "name": "",
          "type": "address"
        }
      ],
      "stateMutability": "view",
      "type": "function",
      "constant": true
    },
    {
      "inputs": [
        {
          "internalType": "string",
          "name": "_candidateName",
          "type": "string"
        },
        {
          "internalType": "uint256",
          "name": "_age",
          "type": "uint256"
        },
        {
          "internalType": "string",
          "name": "_candidateId",
          "type": "string"
        }
      ],
      "name": "representate",
      "outputs": [],
      "stateMutability": "nonpayable",
      "type": "function"
    },
    {
      "inputs": [],
      "name": "getCandidates",
      "outputs": [
        {
          "internalType": "string[]",
          "name": "",
          "type": "string[]"
        }
      ],
      "stateMutability": "view",
      "type": "function",
      "constant": true
    },
    {
      "inputs": [
        {
          "internalType": "string",
          "name": "_candidateName",
          "type": "string"
        }
      ],
      "name": "vote",
      "outputs": [],
      "stateMutability": "nonpayable",
      "type": "function"
    },
    {
      "inputs": [
        {
          "internalType": "string",
          "name": "_candidateName",
          "type": "string"
        }
      ],
      "name": "getCandidateVotes",
      "outputs": [
        {
          "internalType": "uint256",
          "name": "",
          "type": "uint256"
        }
      ],
      "stateMutability": "view",
      "type": "function",
      "constant": true
    },
    {
      "inputs": [],
      "name": "getVoteResult",
      "outputs": [
        {
          "internalType": "string",
          "name": "",
          "type": "string"
        }
      ],
      "stateMutability": "view",
      "type": "function",
      "constant": true
    },
    {
      "inputs": [],
      "name": "winner",
      "outputs": [
        {
          "internalType": "string",
          "name": "",
          "type": "string"
        }
      ],
      "stateMutability": "view",
      "type": "function",
      "constant": true
    }
  ],
  "bytecode": "0x608060405234801561001057600080fd5b50336000806101000a81548173ffffffffffffffffffffffffffffffffffffffff021916908373ffffffffffffffffffffffffffffffffffffffff160217905550611569806100606000396000f3fe608060405234801561001057600080fd5b506004361061007d5760003560e01c8063c9f14e181161005b578063c9f14e18146100dc578063dfbf53ae146100f8578063e962414f14610116578063fc36e15b146101465761007d565b806306a49fce146100825780638742fc3b146100a05780638da5cb5b146100be575b600080fd5b61008a610162565b6040516100979190610bcd565b60405180910390f35b6100a861023b565b6040516100b59190610c39565b60405180910390f35b6100c6610375565b6040516100d39190610c9c565b60405180910390f35b6100f660048036038101906100f19190610e36565b610399565b005b61010061042d565b60405161010d9190610c39565b60405180910390f35b610130600480360381019061012b9190610ec1565b61070d565b60405161013d9190610f19565b60405180910390f35b610160600480360381019061015b9190610ec1565b610735565b005b60606003805480602002602001604051908101604052809291908181526020016000905b828210156102325783829060005260206000200180546101a590610f63565b80601f01602080910402602001604051908101604052809291908181526020018280546101d190610f63565b801561021e5780601f106101f35761010080835404028352916020019161021e565b820191906000526020600020905b81548152906001019060200180831161020157829003601f168201915b505050505081526020019060010190610186565b50505050905090565b6060600060405180602001604052806000815250905060005b60038054905081101561036d57816003828154811061027657610275610f95565b5b906000526020600020016103376103326003858154811061029a57610299610f95565b5b9060005260206000200180546102af90610f63565b80601f01602080910402602001604051908101604052809291908181526020018280546102db90610f63565b80156103285780601f106102fd57610100808354040283529160200191610328565b820191906000526020600020905b81548152906001019060200180831161030b57829003601f168201915b505050505061070d565b610846565b60405160200161034993929190611178565b60405160208183030381529060405291508080610365906111f9565b915050610254565b508091505090565b60008054906101000a900473ffffffffffffffffffffffffffffffffffffffff1681565b60008383836040516020016103b093929190611263565b604051602081830303815290604052805190602001209050806001856040516103d99190611298565b9081526020016040518091039020819055506003849080600181540180825580915050600190039060005260206000200160009091909190915090805190602001906104269291906109cf565b5050505050565b6060600060038054905011610477576040517f08c379a000000000000000000000000000000000000000000000000000000000815260040161046e906112fb565b60405180910390fd5b6000600360008154811061048e5761048d610f95565b5b9060005260206000200180546104a390610f63565b80601f01602080910402602001604051908101604052809291908181526020018280546104cf90610f63565b801561051c5780601f106104f15761010080835404028352916020019161051c565b820191906000526020600020905b8154815290600101906020018083116104ff57829003601f168201915b50505050509050600080600190505b6003805490508110156106c5576002836040516105489190611298565b90815260200160405180910390205460026003838154811061056d5761056c610f95565b5b90600052602060002001604051610584919061131b565b908152602001604051809103902054111561064b57600381815481106105ad576105ac610f95565b5b9060005260206000200180546105c290610f63565b80601f01602080910402602001604051908101604052809291908181526020018280546105ee90610f63565b801561063b5780601f106106105761010080835404028352916020019161063b565b820191906000526020600020905b81548152906001019060200180831161061e57829003601f168201915b50505050509250600091506106b2565b60028360405161065b9190611298565b9081526020016040518091039020546002600383815481106106805761067f610f95565b5b90600052602060002001604051610697919061131b565b90815260200160405180910390205414156106b157600191505b5b80806106bd906111f9565b91505061052b565b508015610705576040518060400160405280601081526020017f546865726520776173206120447261770000000000000000000000000000000081525091505b819250505090565b600060028260405161071f9190611298565b9081526020016040518091039020549050919050565b600033604051602001610748919061137a565b60405160208183030381529060405280519060200120905060005b6004805490508110156107e457816004828154811061078557610784610f95565b5b906000526020600020015414156107d1576040517f08c379a00000000000000000000000000000000000000000000000000000000081526004016107c8906113e1565b60405180910390fd5b80806107dc906111f9565b915050610763565b50600481908060018154018082558091505060019003906000526020600020016000909190919091505560028260405161081e9190611298565b9081526020016040518091039020600081548092919061083d906111f9565b91905055505050565b6060600082141561088e576040518060400160405280600181526020017f300000000000000000000000000000000000000000000000000000000000000081525090506109ca565b600082905060005b600082146108c05780806108a9906111f9565b915050600a826108b99190611430565b9150610896565b60008167ffffffffffffffff8111156108dc576108db610cd5565b5b6040519080825280601f01601f19166020018201604052801561090e5781602001600182028036833780820191505090505b50905060008290505b600086146109c25760018161092c9190611461565b90506000600a808861093e9190611430565b6109489190611495565b876109539190611461565b603061095f91906114fc565b905060008160f81b90508084848151811061097d5761097c610f95565b5b60200101907effffffffffffffffffffffffffffffffffffffffffffffffffffffffffffff1916908160001a905350600a886109b99190611430565b97505050610917565b819450505050505b919050565b8280546109db90610f63565b90600052602060002090601f0160209004810192826109fd5760008555610a44565b82601f10610a1657805160ff1916838001178555610a44565b82800160010185558215610a44579182015b82811115610a43578251825591602001919060010190610a28565b5b509050610a519190610a55565b5090565b5b80821115610a6e576000816000905550600101610a56565b5090565b600081519050919050565b600082825260208201905092915050565b6000819050602082019050919050565b600081519050919050565b600082825260208201905092915050565b60005b83811015610ad8578082015181840152602081019050610abd565b83811115610ae7576000848401525b50505050565b6000601f19601f8301169050919050565b6000610b0982610a9e565b610b138185610aa9565b9350610b23818560208601610aba565b610b2c81610aed565b840191505092915050565b6000610b438383610afe565b905092915050565b6000602082019050919050565b6000610b6382610a72565b610b6d8185610a7d565b935083602082028501610b7f85610a8e565b8060005b85811015610bbb5784840389528151610b9c8582610b37565b9450610ba783610b4b565b925060208a01995050600181019050610b83565b50829750879550505050505092915050565b60006020820190508181036000830152610be78184610b58565b905092915050565b600082825260208201905092915050565b6000610c0b82610a9e565b610c158185610bef565b9350610c25818560208601610aba565b610c2e81610aed565b840191505092915050565b60006020820190508181036000830152610c538184610c00565b905092915050565b600073ffffffffffffffffffffffffffffffffffffffff82169050919050565b6000610c8682610c5b565b9050919050565b610c9681610c7b565b82525050565b6000602082019050610cb16000830184610c8d565b92915050565b6000604051905090565b600080fd5b600080fd5b600080fd5b600080fd5b7f4e487b7100000000000000000000000000000000000000000000000000000000600052604160045260246000fd5b610d0d82610aed565b810181811067ffffffffffffffff82111715610d2c57610d2b610cd5565b5b80604052505050565b6000610d3f610cb7565b9050610d4b8282610d04565b919050565b600067ffffffffffffffff821115610d6b57610d6a610cd5565b5b610d7482610aed565b9050602081019050919050565b82818337600083830152505050565b6000610da3610d9e84610d50565b610d35565b905082815260208101848484011115610dbf57610dbe610cd0565b5b610dca848285610d81565b509392505050565b600082601f830112610de757610de6610ccb565b5b8135610df7848260208601610d90565b91505092915050565b6000819050919050565b610e1381610e00565b8114610e1e57600080fd5b50565b600081359050610e3081610e0a565b92915050565b600080600060608486031215610e4f57610e4e610cc1565b5b600084013567ffffffffffffffff811115610e6d57610e6c610cc6565b5b610e7986828701610dd2565b9350506020610e8a86828701610e21565b925050604084013567ffffffffffffffff811115610eab57610eaa610cc6565b5b610eb786828701610dd2565b9150509250925092565b600060208284031215610ed757610ed6610cc1565b5b600082013567ffffffffffffffff811115610ef557610ef4610cc6565b5b610f0184828501610dd2565b91505092915050565b610f1381610e00565b82525050565b6000602082019050610f2e6000830184610f0a565b92915050565b7f4e487b7100000000000000000000000000000000000000000000000000000000600052602260045260246000fd5b60006002820490506001821680610f7b57607f821691505b60208210811415610f8f57610f8e610f34565b5b50919050565b7f4e487b7100000000000000000000000000000000000000000000000000000000600052603260045260246000fd5b600081905092915050565b6000610fda82610a9e565b610fe48185610fc4565b9350610ff4818560208601610aba565b80840191505092915050565b7f2820000000000000000000000000000000000000000000000000000000000000600082015250565b6000611036600283610fc4565b915061104182611000565b600282019050919050565b60008190508160005260206000209050919050565b6000815461106e81610f63565b6110788186610fc4565b9450600182166000811461109357600181146110a4576110d7565b60ff198316865281860193506110d7565b6110ad8561104c565b60005b838110156110cf578154818901526001820191506020810190506110b0565b838801955050505b50505092915050565b7f2c20000000000000000000000000000000000000000000000000000000000000600082015250565b6000611116600283610fc4565b9150611121826110e0565b600282019050919050565b7f2029200000000000000000000000000000000000000000000000000000000000600082015250565b6000611162600383610fc4565b915061116d8261112c565b600382019050919050565b60006111848286610fcf565b915061118f82611029565b915061119b8285611061565b91506111a682611109565b91506111b28284610fcf565b91506111bd82611155565b9150819050949350505050565b7f4e487b7100000000000000000000000000000000000000000000000000000000600052601160045260246000fd5b600061120482610e00565b91507fffffffffffffffffffffffffffffffffffffffffffffffffffffffffffffffff821415611237576112366111ca565b5b600182019050919050565b6000819050919050565b61125d61125882610e00565b611242565b82525050565b600061126f8286610fcf565b915061127b828561124c565b60208201915061128b8284610fcf565b9150819050949350505050565b60006112a48284610fcf565b915081905092915050565b7f4e6f7420656e6f7567682063616e646964617465732e00000000000000000000600082015250565b60006112e5601683610bef565b91506112f0826112af565b602082019050919050565b60006020820190508181036000830152611314816112d8565b9050919050565b60006113278284611061565b915081905092915050565b60008160601b9050919050565b600061134a82611332565b9050919050565b600061135c8261133f565b9050919050565b61137461136f82610c7b565b611351565b82525050565b60006113868284611363565b60148201915081905092915050565b7f566f7465722068617320616c726561647920766f7465642e0000000000000000600082015250565b60006113cb601883610bef565b91506113d682611395565b602082019050919050565b600060208201905081810360008301526113fa816113be565b9050919050565b7f4e487b7100000000000000000000000000000000000000000000000000000000600052601260045260246000fd5b600061143b82610e00565b915061144683610e00565b92508261145657611455611401565b5b828204905092915050565b600061146c82610e00565b915061147783610e00565b92508282101561148a576114896111ca565b5b828203905092915050565b60006114a082610e00565b91506114ab83610e00565b9250817fffffffffffffffffffffffffffffffffffffffffffffffffffffffffffffffff04831182151516156114e4576114e36111ca565b5b828202905092915050565b600060ff82169050919050565b6000611507826114ef565b9150611512836114ef565b92508260ff03821115611528576115276111ca565b5b82820190509291505056fea264697066735822122044bd1eeaf0a83c22e9e96f3de6c8b7177130ad99d3e2e48d3ed6b3e15a58487164736f6c63430008090033",
  "immutableReferences": {},
  "source": "pragma solidity >=0.8.0;\r\n// SPDX-License-Identifier: UNLICENSED\r\n\r\ncontract VotingContract {\r\n\r\n    // Contract's Owner address\r\n    address public owner;\r\n\r\n    // Relate candidate's name and its personal data hash.\r\n    mapping (string => bytes32) candidateId;\r\n\r\n    // Relate candidate's name and votes count.\r\n    mapping (string => uint) candidateVotes;\r\n\r\n    // Candidates list.\r\n    string[] candidates;\r\n\r\n    // Voters list as hashes to keep voter info private.\r\n    bytes32[] votants;\r\n\r\n\r\n    constructor() {\r\n\r\n        // Set owner to contract deployer.\r\n        owner = msg.sender;\r\n\r\n    }\r\n\r\n\r\n    // Lets everyone be proposed as a candidate.\r\n    function representate(string memory _candidateName, uint _age, string memory _candidateId) public {\r\n\r\n        // Get candidate's data hash.\r\n        bytes32 _candidateHash = keccak256(abi.encodePacked(_candidateName, _age, _candidateId));\r\n\r\n        // Store candidate's hash.\r\n        candidateId[_candidateName] = _candidateHash;\r\n\r\n        // Update candidates array.\r\n        candidates.push(_candidateName);\r\n\r\n    }\r\n\r\n    // Get candidates list.\r\n    function getCandidates() public view returns (string[] memory) {\r\n        return candidates;\r\n    }\r\n\r\n    // Vote function.\r\n    function vote(string memory _candidateName) public onlyOnce {\r\n        candidateVotes[_candidateName] ++;\r\n    }\r\n\r\n    // Check that voter is not voting twice.\r\n    modifier onlyOnce() {\r\n\r\n        // Calculate voter's hash.\r\n        bytes32 _votantHash = keccak256(abi.encodePacked(msg.sender));\r\n\r\n        // Check if votant has voted before.\r\n        for(uint256 i = 0; i < votants.length; i++) {\r\n            require(votants[i] != _votantHash, \"Voter has already voted.\");\r\n        }\r\n\r\n        // Add votant's hash to votants array.\r\n        votants.push(_votantHash);\r\n\r\n        _;\r\n    }\r\n\r\n    // Get candidate votes.\r\n    function getCandidateVotes(string memory _candidateName) public view returns (uint) {\r\n        return candidateVotes[_candidateName];\r\n    }\r\n\r\n    // Get vote winnner.\r\n    function getVoteResult() public view returns(string memory) {\r\n\r\n        // Get candidates result.\r\n        string memory _result = \"\";\r\n\r\n        // Get result.\r\n        for(uint i = 0; i < candidates.length; i++) {\r\n            _result = string(abi.encodePacked(_result, \"( \", candidates[i], \", \", uint2str(getCandidateVotes(candidates[i])), \" ) \"));\r\n        }\r\n\r\n        return _result;\r\n\r\n    }\r\n\r\n    // Cast from Uint to String\r\n    function uint2str(uint _i) internal pure returns (string memory _uintAsString) {\r\n        if (_i == 0) {\r\n            return \"0\";\r\n        }\r\n        uint j = _i;\r\n        uint len;\r\n        while (j != 0) {\r\n            len++;\r\n            j /= 10;\r\n        }\r\n        bytes memory bstr = new bytes(len);\r\n        uint k = len;\r\n        while (_i != 0) {\r\n            k = k-1;\r\n            uint8 temp = (48 + uint8(_i - _i / 10 * 10));\r\n            bytes1 b1 = bytes1(temp);\r\n            bstr[k] = b1;\r\n            _i /= 10;\r\n        }\r\n        return string(bstr);\r\n    }\r\n\r\n    // Get Vote Winner.\r\n    function winner() public view returns (string memory) {\r\n\r\n        require(candidates.length > 0, \"Not enough candidates.\");\r\n\r\n        // Winner variable with its name.\r\n        string memory _winner = candidates[0];\r\n\r\n        // Draw flag.\r\n        bool flag;\r\n\r\n        for (uint i = 1; i < candidates.length; i++) {\r\n\r\n            if (candidateVotes[candidates[i]] > candidateVotes[_winner]) {\r\n\r\n                _winner = candidates[i];\r\n                flag = false;\r\n\r\n            } else if (candidateVotes[candidates[i]] == candidateVotes[_winner]) {\r\n\r\n                flag = true;\r\n\r\n            }\r\n\r\n        }\r\n\r\n        // If draw, return a draw.\r\n        if (flag) {\r\n            _winner = \"There was a Draw\";\r\n        }\r\n\r\n        return _winner;\r\n    }\r\n\r\n}",
  "sourcePath": "C:\\Users\\Muskan Sharma\\Desktop\\Web Development\\VScode\\Minor Project\\contracts\\voting.sol",
  "compiler": {
    "name": "solc",
    "version": "0.8.9+commit.e5eed63a.Emscripten.clang"
  },
  "schemaVersion": "3.4.4",
  "updatedAt": "2022-05-15T20:39:59.791Z",
  "networkType": "ethereum",
  "devdoc": {
    "kind": "dev",
    "methods": {},
    "version": 1
  },
  "userdoc": {
    "kind": "user",
    "methods": {},
    "version": 1
  }
}